S01700004763634170706C69636174696F6E312E737265635B
S11300000C9434000C9449000C9449000C9449005D
S11300100C9449000C9449000C9449000C94490038
S11300200C9449000C9449000C9449000C94490028
S11300300C9449000C9449000C9449000C94490018
S11300400C9449000C9449000C9449000C94490008
S11300500C9449000C9449000C9449000C944900F8
S11300600C9449000C94490011241FBECFEFD8E032
S1130070DEBFCDBF11E0A0E0B1E0E6E1F5E002C0F3
S113008005900D92A030B107D9F70E9496000C9408
S113009089020C94000020E030E008C0EFE9FFE0A2
S11300A03197F1F700C000002F5F3F4F2817390741
S11300B0A8F30895CF92DF92EF92FF92CF93C42FCB
S11300C09B01AC0160E070E68AE697E40E94ED00D3
S11300D020E030E040E85DE30E941C026B017C01FB
S11300E06C2F70E080E090E00E949001A7019601DF
S11300F00E941C022BB121602BB920E030E040E0CB
S11301005FE30E941C020E945F016B017C01CB0132
S11301100E944B008BB18E7F8BB9C6010E944B00AD
S1130120CF91FF90EF90DF90CF9008958FEF8AB931
S113013040E160E070E088EC92E40E945A0040E103
S113014060E070E088EC92E40E945A0040E160E0D4
S113015070E088EC92E40E945A0040E160E070E0B4
S113016088EC92E40E945A0048E060E070E088EC79
S113017092E40E945A0048E060E070E088EC92E467
S11301800E945A0048E060E070E088EC92E40E942B
S11301905A0048E060E070E088EC92E40E945A0063
S11301A048E060E070E088EC92E40E945A0048E085
S11301B060E070E088EC92E40E945A0048E060E05D
S11301C070E088EC92E40E945A0048E060E070E03D
S11301D088EC92E40E945A00A9CF0E9401010C9479
S11301E0E2010E94DB0158F00E94D40140F029F49E
S11301F05F3F29F00C94CB0151110C9416020C941E
S1130200D1010E94F30168F39923B1F3552391F3CB
S1130210951B550BBB27AA2762177307840738F071
S11302209F5F5F4F220F331F441FAA1FA9F335D0CE
S11302300E2E3AF0E0E832D091505040E695001C82
S1130240CAF72BD0FE2F29D0660F771F881FBB1F3C
S1130250261737074807AB07B0E809F0BB0B802D1A
S1130260BF01FF2793585F4F3AF09E3F510578F046
S11302700C94CB010C9416025F3FE4F3983ED4F344
S1130280869577956795B795F7959F5FC9F7880F1A
S1130290911D9695879597F90895E1E0660F771F6C
S11302A0881FBB1F621773078407BA0720F0621BFD
S11302B0730B840BBA0BEE1F88F7E09508950E9428
S11302C0FB0188F09F5798F0B92F9927B751B0F0E8
S11302D0E1F0660F771F881F991F1AF0BA95C9F7C6
S11302E014C0B13091F00E941502B1E008950C944D
S11302F01502672F782F8827B85F39F0B93FCCF300
S1130300869577956795B395D9F73EF49095809542
S1130310709561957F4F8F4F9F4F0895E89409C062
S113032097FB3EF490958095709561957F4F8F4F24
S11303309F4F9923A9F0F92F96E9BB279395F6953A
S1130340879577956795B795F111F8CFFAF4BB0FB8
S113035011F460FF1BC06F5F7F4F8F4F9F4F16C01C
S1130360882311F096E911C0772321F09EE8872FA6
S1130370762F05C0662371F096E8862F70E060E062
S11303802AF09A95660F771F881FDAF7880F9695DB
S1130390879597F9089597F99F6780E870E060E082
S11303A008959FEF80EC089500240A94161617060A
S11303B018060906089500240A9412161306140652
S11303C005060895092E0394000C11F4882352F0B5
S11303D0BB0F40F4BF2B11F460FF04C06F5F7F4F6D
S11303E08F4F9F4F089557FD9058440F551F59F054
S11303F05F3F71F04795880F97FB991F61F09F3F0E
S113040079F087950895121613061406551FF2CF36
S11304104695F1DF08C0161617061806991FF1CF86
S113042086957105610508940895E894BB276627AD
S11304307727CB0197F908950E942F020C94E201CB
S11304400E94D40138F00E94DB0120F0952311F0C2
S11304500C94CB010C94D10111240C9416020E942B
S1130460F30170F3959FC1F3950F50E0551F629F00
S1130470F001729FBB27F00DB11D639FAA27F00DF9
S1130480B11DAA1F649F6627B00DA11D661F829F20
S11304902227B00DA11D621F739FB00DA11D621F05
S11304A0839FA00D611D221F749F3327A00D611D22
S11304B0231F849F600D211D822F762F6A2F112404
S11304C09F5750409AF0F1F088234AF0EE0FFF1F37
S11304D0BB1F661F771F881F91505040A9F79E3F8E
S11304E0510580F00C94CB010C9416025F3FE4F3A9
S11304F0983ED4F3869577956795B795F795E795E4
S11305009F5FC1F7FE2B880F911D9695879597F9EC
S10905100895F894FFCFEA
S9030000FC
